:100000000C9472000C9494000C9494000C94940042
:100010000C9494000C9494000C9494000C94940010
:100020000C9494000C9494000C9494000C94940000
:100030000C9494000C9494000C9494000C94A800DC
:100040000C9494000C9494000C9494000C949400E0
:100050000C9494000C9494000C9494000C949400D0
:100060000C9494000C94DF040C9494000C949A0467
:100070000C9494000C9494000C9494000C949400B0
:100080000C9494000C9494000C9494000C949400A0
:100090000C9494000C9494000C9494000C94940090
:1000A0000C9494000C9494000C9494000C94940080
:1000B0000C9494000C9494000C9494000C94940070
:1000C0000C9494000C9494000C9494000C94940060
:1000D0000C9494000C9494000C9494000C94940050
:1000E0000C94940011241FBECFEFD1E2DEBFCDBF30
:1000F00000E00CBF12E0A0E0B2E0ECE1F4E100E0CF
:100100000BBF02C007900D92AE36B107D9F71BBEE8
:1001100014E0AEE6B2E001C01D92AB3CB107E1F7DE
:100120000E943A050C940C0A0C9400001092B20044
:10013000E6EBF0E0808180628083E0E7F0E08081A0
:1001400081608083E1EBF0E08081856080830895A9
:100150001F920F920FB60F9211248F939F9386E0F8
:100160008093B20080916E0290916F0201969093FD
:100170006F0280936E0283709070009719F481E093
:1001800080937F049F918F910F900FBE0F901F90CF
:1001900018952CE330E0B9010E944C054DB75EB7CD
:1001A000485050400FB6F8945EBF0FBE4DBFEDB73C
:1001B000FEB7319640E052E0ADB7BEB712965C9301
:1001C0004E93119793838283CB01B9010E944C0512
:1001D00095838483778366830E940C074DB75EB74F
:1001E000485F5F4F0FB6F8945EBF0FBE4DBF0895D6
:1001F000CF93DF93FC0162E070E00E944C05EB01BD
:1002000022E030E008C0CF01B9010E944C05009700
:1002100041F02F5F3F4FC217D307ACF781E090E06A
:1002200002C080E090E0DF91CF910895CF92DF92FD
:10023000EF92FF920F931F93CF93DF93009721F0DC
:100240000E94A2067C0104C090EDE92E97E0F92EF1
:10025000C2E0D0E000E010E080E1C82E82E0D82EBD
:1002600016C0CE010E94F800009781F00F5F1F4F6B
:1002700000D00F92EDB7FEB7D282C182D483C38380
:100280000E940C070F900F900F900F902196EC1684
:10029000FD063CF700D00F928AE292E0EDB7FEB780
:1002A00092838183148303830E940C070F900F9025
:1002B0000F900F90DF91CF911F910F91FF90EF90D2
:1002C000DF90CF900895CF92DF92FF920F931F930C
:1002D000CF93DF93CDB7DEB728970FB6F894DEBF84
:1002E0000FBECDBF009719F0FC01F08002C031E6CF
:1002F000F32E24E3C22E22E0D22E0F920F92EDB7FE
:10030000FEB7D282C1820E940C070F900F904091DD
:10031000C5045091C604CE01019668E070E00E94C9
:10032000D8060097D9F00E9437028C01BE016F5F9A
:100330007F4F0E94C906F8E6FF1621F084E7F81601
:1003400049F404C0C8010E943F02D7CFC8010E94EF
:100350005402D3CFC8010E946B02CFCF0E94AD02DE
:100360000E94D80228960FB6F894DEBF0FBECDBF0C
:10037000DF91CF911F910F91FF90DF90CF90089563
:100380000F931F93CF93DF93CDB7DEB762970FB66E
:10039000F894DEBF0FBECDBF04E312E00F920F92C0
:1003A000EDB7FEB7128301830E940C070F900F90E8
:1003B0004091C5045091C604CE01019668E070E0FA
:1003C0000E94D806009761F0CE0101960E94A20615
:1003D000BC01009729F0CE0109960E94D003DECF20
:1003E0000E9478030E94BA0362960FB6F894DEBFAB
:1003F0000FBECDBFDF91CF911F910F9108958FEF69
:1004000080930B0180930A018093700208951092EB
:100410000B011092700208958FEF80930B0180936F
:100420007002089521E030E002C0220F331F8A9548
:10043000E2F7209580917002282320937002209388
:100440000B01089521E030E002C0220F331F8A958E
:10045000E2F780917002822B8093700280930B01EF
:10046000089580958093700280930B0108958AE02F
:1004700090E00E94730508950E9409060895FC010A
:100480008091710290917202009739F4F093720298
:10049000E093710211861086089591878087F0930A
:1004A0007202E09371020895E0917102F09172027C
:1004B000309731F4909372028093710208C0F90171
:1004C0002085318521153105D1F791878087FC0181
:1004D000118610860895CF92DF92EF92FF920F93CC
:1004E0001F93CF93DF93EC01C0907102D090720202
:1004F000C114D10479F49093720280937102198629
:10050000188622C0F801808591857801009759F0FE
:100510008C0103C08601EE24FF24C801BE010E94A5
:10052000C00697FDEFCFE114F10439F4D986C886EF
:10053000D0937202C093710207C0F7018085918544
:1005400099878887D187C087DF91CF911F910F91BD
:10055000FF90EF90DF90CF9008950F931F93CF936C
:10056000DF938AE090E00E941E07C0917102D09153
:10057000720208E312E011C000D00F92EDB7FEB78F
:1005800012830183D483C3830E940C070884D98516
:10059000C02D0F900F900F900F90209769F78AE071
:1005A00090E00E941E07DF91CF911F910F91089557
:1005B00009C0FC01208531853093720220937102BD
:1005C0000E9409068091710290917202009789F74A
:1005D0000895109274021092730210927602109293
:1005E0007502109278021092770210927A0210929D
:1005F00079020895482F20917702309178022F5F79
:100600003F4FC90160E071E00E944C059C01809160
:10061000790290917A022817390759F030937802BD
:100620002093770225583D4FF901408381E090E007
:10063000089580E090E008958091790290917A0287
:1006400020917702309178022817390779F00196C6
:1006500060E071E00E944C0590937A0280937902E9
:1006600085589D4FFC01808190E0089580E090E0E6
:100670000895482F20917302309174022F5F3F4FED
:10068000C90160E071E00E944C059C0180917502F7
:10069000909176022817390759F03093740220930D
:1006A000730225583C4FF901408381E090E00895A2
:1006B00080E090E0089580917502909176022091FB
:1006C0007302309174022817390779F0019660E0BF
:1006D00071E00E944C0590937602809375028558D4
:1006E0009C4FFC01808190E0089580E090E00895A7
:1006F000EF92FF920F931F93CF93DF938AE090E0E6
:100700000E941E07C0917B04D0917C0400E010E0A1
:100710008FE3E82E82E0F82E20C088819981080FAF
:10072000191F00D000D0EDB7FEB73196ADB7BEB7F8
:100730001296FC92EE921197938382831583048321
:100740000E940C070C84DD85C02D8DB79EB70696E0
:100750000FB6F8949EBF0FBE8DBF2097F1F68AE0CA
:1007600090E00E941E07DF91CF911F910F91FF90A3
:10077000EF90089509C0FC012485358530937C04F1
:1007800020937B040E94090680917B0490917C0455
:10079000009789F708958EE090E00E947305089510
:1007A000EF92FF920F931F93CF93DF93F82EE92ED2
:1007B0008B010E94CB03EC01DC011296EF2DFE2D84
:1007C0008AE001900D928150E1F719830883E0914E
:1007D0007B04F0917C04309729F4D0937C04C0937F
:1007E0007B042FC040E050E020E030E001C0FD017C
:1007F00080819181280F391F2017310734F4A48597
:10080000B585AF01109799F701C0DF01411551057A
:1008100079F48D919C911197801B910B11969C936B
:100820008E93BD87AC87D0937C04C0937B0424C097
:10083000109751F4021B130B19830883FA01D58713
:10084000C4871D861C8618C08D919C911197B90193
:10085000681B790B9801261B370B398328838D91F0
:100860009C911197821B930B11969C938E93FA0186
:10087000D587C487BD87AC87DF91CF911F910F913A
:10088000FF90EF900895CF93C82F8A3019F48DE030
:100890000E944304F89480918004882359F4C09303
:1008A000C60081E0809380040AC0789486EF8A9520
:1008B000F1F7F8948C2F0E9439030097B1F37894E4
:1008C00081E090E0CF910895F8940E941C03789401
:1008D0008823D1F3843011F090E008958FEF9FEFDB
:1008E00008958AE492E09093C6048093C50488E555
:1008F00092E09093C8048093C7040E94E90210928A
:1009000080041092C50087E08093C400E0ECF0E022
:10091000808182608083E1ECF0E080818860808368
:100920008081806480838081806180838081806811
:10093000808308951F920F920FB60F920BB60F92FD
:1009400011242F933F934F935F936F937F938F93D4
:100950009F93AF93BF93EF93FF930E945B03882312
:1009600019F41092800402C08093C600FF91EF91A9
:10097000BF91AF919F918F917F916F915F914F91B7
:100980003F912F910F900BBE0F900FBE0F901F90B5
:100990001895CF93C82F8A3019F48DE00E94C904AE
:1009A00080918004882331F4C093C60081E0809355
:1009B000800403C08C2F0E943903CF9108951F92A9
:1009C0000F920FB60F920BB60F9211242F933F93F5
:1009D0004F935F936F937F938F939F93AF93BF9347
:1009E000CF93EF93FF93C091C600C43031F0CD3068
:1009F00009F4CAE08C2F0E94C9048C2F0E94FA02CD
:100A0000FF91EF91CF91BF91AF919F918F917F9186
:100A10006F915F914F913F912F910F900BBE0F906F
:100A20000FBE0F901F901895CF93C82F8A3019F4DE
:100A30008DE00E94140583E397E00197F1F7C093DE
:100A4000C60081E090E0CF910895CF93C82F8A30FF
:100A500039F46091C7047091C8048DE00E942505A7
:100A60008091C00085FFFCCFC093C60081E090E07C
:100A7000CF9108950E9471040E9496007894C0E07E
:100A8000D0E080917F048823E1F310927F042196C7
:100A9000CE010E94C900F5CF97FB092E07260AD088
:100AA00077FD04D00CD006D000201AF47095619523
:100AB0007F4F0895F6F7909581959F4F0895AA1B53
:100AC000BB1B51E107C0AA1FBB1FA617B70710F039
:100AD000A61BB70B881F991F5A95A9F7809590956B
:100AE000BC01CD010895CF93DF93AC018230910515
:100AF00010F442E050E0E091C304F091C40420E01F
:100B000030E0A0E0B0E024C0808191818417950797
:100B1000D0F08417950771F482819381109729F0A2
:100B200013969C938E9312972CC09093C404809339
:100B3000C30427C02115310519F08217930718F453
:100B40009C01BD01EF0192818381DF01E92FF82F24
:100B50003097D1F621153105F9F0C901841B950BA9
:100B60008430910580F48A819B816115710521F0A3
:100B7000FB019383828304C09093C4048093C304D5
:100B8000FE01329642C0FE01E80FF91F41935193D6
:100B900002979983888339C08091C1049091C204DF
:100BA000009741F480916A0290916B029093C20485
:100BB0008093C104209168023091690221153105AA
:100BC00041F42DB73EB780916C0290916D02281BC5
:100BD000390BE091C104F091C204E217F30798F4D5
:100BE0002E1B3F0B2417350770F0CA0102962817F9
:100BF000390748F08E0F9F1F9093C2048093C10461
:100C00004193519302C0E0E0F0E0CF01DF91CF913A
:100C100008950F931F93CF93DF939C01009709F4DE
:100C20008CC0DC01129713961C921E921297609151
:100C3000C3047091C4046115710589F48D919C9170
:100C40001197820F931F2091C1043091C20428177D
:100C5000390769F5B093C204A093C1046EC0FB01CB
:100C600040E050E001C0FC01EA17FB0730F482814C
:100C70009381AF010097B9F71FC0E9012297FB8369
:100C8000EA8308811981C901800F911F8E179F0780
:100C900059F480819181800F911F029699838883F6
:100CA000828193819B838A834115510529F4B093F6
:100CB000C404A093C30441C0FA01B383A283C191C9
:100CC000D191EC0FFD1FAE17BF0781F4F90192918E
:100CD00082918C0F9D1F0296DA0111969C938E9340
:100CE0008281938113969C938E931297E0E0F0E0BB
:100CF00002C0FB01BC01DB0112968D919C91139700
:100D00000097B9F7CB0102962D913C911197820F74
:100D1000931F2091C1043091C2042817390769F448
:100D2000309729F41092C4041092C30402C01382B5
:100D300012827093C2046093C104DF91CF911F911E
:100D40000F910895FC0188279927E894219120327A
:100D5000E9F3293010F02E30C8F32B3241F02D3258
:100D600039F4689404C00E94D006820F911D21912D
:100D700020532A30C0F31EF4909581959F4F08951B
:100D8000FB01DC018D91019080190110D9F3990BC1
:100D90000895FB01DC0101900D920020E1F7089518
:100DA0007AE0979F902D879F802D910D11240895B3
:100DB000CF92DF92EF92FF920F931F93CF93DF9327
:100DC0008C016A01FA01838180FF1AC0161617068A
:100DD000BCF47B01E8010EC0C6010E944209FFEF8E
:100DE0008F3F9F0769F089930894E108F1088A30E2
:100DF000910521F021E0E216F10471F7188202C09A
:100E000000E010E0C801DF91CF911F910F91FF909A
:100E1000EF90DF90CF900895CF93DF93CDB7DEB7FB
:100E2000FE013696619171918091C7049091C8043A
:100E3000AF010E942507DF91CF9108956091C7040B
:100E40007091C8040E94820908952F923F924F9298
:100E50005F926F927F928F929F92AF92BF92CF924A
:100E6000DF92EF92FF920F931F93CF93DF93CDB753
:100E7000DEB72D970FB6F894DEBF0FBECDBF3C0195
:100E80007D876C875A01FC0117821682838181FF5E
:100E9000C8C12E010894411C511CF3019381EC85BB
:100EA000FD8593FD859193FF8191FD87EC878823D4
:100EB00009F4B3C1853241F493FD859193FF81918B
:100EC000FD87EC87853229F490E0B3010E94820906
:100ED000E4CFFF24EE2410E01032B0F48B3269F03E
:100EE0008C3228F4803251F0833271F40BC08D3291
:100EF00039F0803349F411602CC01260146029C0AD
:100F0000186027C0106125C017FD2EC0282F205360
:100F10002A3098F416FF08C08F2D880FF82EFF0C8A
:100F2000FF0CF80EF20E15C08E2D880FE82EEE0C79
:100F3000EE0CE80EE20E10620CC08E3221F416FDAB
:100F40006CC1106406C08C3611F4106802C088367B
:100F500059F4EC85FD8593FD859193FF8191FD8783
:100F6000EC87882309F0B8CF982F9554933018F068
:100F70009052933038F424E030E0A20EB31E3FE3E9
:100F800039830FC0833631F0833781F0833509F020
:100F90005AC022C0F5018081898322E030E0A20E90
:100FA000B31E21E0C22ED12C420114C092E0292EA2
:100FB000312C2A0C3B1CF5018080918016FF03C068
:100FC0006F2D70E002C06FEF7FEFC4010E94370900
:100FD0006C0151011F7715C082E0282E312C2A0C9C
:100FE0003B1CF5018080918016FF03C06F2D70E0DF
:100FF00002C06FEF7FEFC4010E942C096C011068E2
:10100000510113FD1CC006C080E290E0B3010E94B4
:101010008209EA948E2D90E0C816D906A8F30FC075
:10102000F40117FD859117FF81914F0190E0B30105
:101030000E948209E110EA940894C108D108C11401
:10104000D10471F7E7C0843611F0893651F5F50106
:1010500017FF07C080819181A281B38124E030E035
:1010600008C080819181AA2797FDA095BA2F22E020
:1010700030E0A20EB31E012F0F76B7FF08C0B09567
:10108000A095909581959F4FAF4FBF4F0068BC01D1
:10109000CD01A2012AE030E00E94AE09D82ED4187A
:1010A0003FC0853721F41F7E2AE030E020C0197F41
:1010B0008F36A9F0803720F4883509F0AEC00BC018
:1010C000803721F0883709F0A8C001C0106114FFF3
:1010D00009C0146007C014FF08C0166006C028E0ED
:1010E00030E005C020E130E002C020E132E0F5014F
:1010F00017FF07C0608171818281938144E050E0D5
:1011000006C06081718180E090E042E050E0A40E72
:10111000B51EA2010E94AE09D82ED418012F0F7758
:1011200006FF09C00E7FDF1430F404FF06C002FD85
:1011300004C00F7E02C01D2D01C01F2D802F90E026
:1011400004FF0CC0FE01ED0DF11D2081203311F4D0
:10115000097E09C002FF06C01E5F05C08678907038
:10116000009709F01F5F802E992403FD12C000FF35
:101170000DC0FD2C1E1550F4FE0CF11A1E2D06C0DC
:1011800080E290E0B3010E9482091F5F1E15C0F348
:1011900004C01E1510F4E11A01C0EE2484FE0FC035
:1011A00080E390E0B3010E94820982FE1FC081FEAD
:1011B00003C088E590E010C088E790E00DC0C4014E
:1011C00086789070009791F081FC02C080E201C0A7
:1011D0008BE207FD8DE290E0B3010E94820906C018
:1011E00080E390E0B3010E948209FA94DF14C0F317
:1011F000DA94F201ED0DF11D808190E0B3010E94BF
:101200008209DD20A9F706C080E290E0B3010E94C8
:101210008209EA94EE20C1F740CEF30186819781DE
:1012200002C08FEF9FEF2D960FB6F894DEBF0FBE72
:10123000CDBFDF91CF911F910F91FF90EF90DF9085
:10124000CF90BF90AF909F908F907F906F905F9066
:101250004F903F902F900895FC0105906150704091
:101260000110D8F7809590958E0F9F1F0895FC016F
:101270006150704001900110D8F7809590958E0FC5
:101280009F1F0895CF93DF93EC012B8120FF35C082
:1012900026FF09C02F7B2B838E819F8101969F8320
:1012A0008E838A8128C022FF0FC0E881F981808166
:1012B000992787FD9095009719F420622B831DC014
:1012C0003196F983E88311C0EA85FB85CE01199533
:1012D00097FF0BC02B813FEF8F3F930711F480E105
:1012E00001C080E2822B8B8308C02E813F812F5F5B
:1012F0003F4F3F832E8390E002C08FEF9FEFDF913F
:10130000CF9108950F931F93CF93DF938C01EB013F
:101310008B8181FF1BC082FF0DC02E813F818C819C
:101320009D812817390764F4E881F9810193F983D5
:10133000E88306C0E885F985802F1995009731F478
:101340008E819F8101969F838E8302C00FEF1FEFD6
:10135000C801DF91CF911F910F910895FA01AA273B
:10136000283051F1203181F1E8946F936E7F6E5FE8
:101370007F4F8F4F9F4FAF4FB1E03ED0B4E03CD096
:10138000670F781F891F9A1FA11D680F791F8A1F79
:10139000911DA11D6A0F711D811D911DA11D20D0E0
:1013A00009F468943F912AE0269F11243019305D9A
:1013B0003193DEF6CF010895462F4770405D41938B
:1013C000B3E00FD0C9F7F6CF462F4F70405D4A33D8
:1013D00018F0495D31FD4052419302D0A9F7EACFA0
:1013E000B4E0A6959795879577956795BA95C9F7CF
:1013F00000976105710508959B01AC010A2E0694C2
:101400005795479537952795BA95C9F7620F731F7A
:0C141000841F951FA01D0895F894FFCFC5
:10141C00252E32643A252E32643A252E32640A0087
:10142C0025642069732061207072696D65206E756A
:10143C006D626572202121210A00636F756E743D07
:10144C0025640A003E3E20002D2D3E257320002DE4
:10145C002D3E256428256429200000000001000091
:10146C000000000064040000000000020000000006
:0E147C0043040000000001000000CB0420002B
:00000001FF
