:100000000C9472000C9494000C9494000C94940042
:100010000C9494000C9494000C9494000C94940010
:100020000C9494000C9494000C9494000C94940000
:100030000C9494000C9494000C9494000C949400F0
:100040000C9494000C9494000C9494000C949400E0
:100050000C9494000C9494000C9494000C949400D0
:100060000C9494000C9494000C9494000C949400C0
:100070000C9494000C9494000C9494000C949400B0
:100080000C9494000C9494000C9494000C949400A0
:100090000C9494000C9494000C9494000C94940090
:1000A0000C9494000C9494000C9494000C94940080
:1000B0000C9494000C9494000C9494000C94940070
:1000C0000C9494000C9494000C9494000C94940060
:1000D0000C9494000C9494000C9494000C94940050
:1000E0000C94940011241FBECFEFD1E2DEBFCDBF30
:1000F00000E00CBF12E0A0E0B2E0E8E0F2E000E0D7
:100100000BBF02C007900D92A030B107D9F71BBEFC
:1001100012E0A0E0B2E001C01D92A130B107E1F70A
:100120000E94D4000C9402010C9400008FEF809385
:100130000A0110920B0108958FEF80930B018093B9
:100140000A0180930002089510920B0110920002A0
:1001500008958FEF80930B0180930002089521E0B2
:1001600030E002C0220F331F8A95E2F7209580917C
:10017000000228232093000220930B01089521E020
:1001800030E002C0220F331F8A95E2F7809100020F
:10019000822B8093000280930B01089580958093B9
:1001A000000280930B0108950E949C0028C08C2FB0
:1001B0000E94AF008FEF9FE3A2E081509040A040EB
:1001C000E1F700C000002196C830D10584F3C7E0F4
:1001D0008C2F0E94BF008FEF9FE3A2E081509040E0
:1001E000A040E1F700C00000C15090F78FEF9FE3FF
:1001F000A2E081509040A040E1F700C00000C0E0C4
:08020000D0E0E2CFF894FFCF3B
:00000001FF
