:100000000C9472000C9494000C9494000C94940042
:100010000C9494000C9494000C9494000C94940010
:100020000C9494000C9494000C9494000C94940000
:100030000C9494000C9494000C9494000C949400F0
:100040000C9494000C9494000C9494000C949400E0
:100050000C9494000C9494000C9494000C949400D0
:100060000C9494000C9494000C9494000C947E01D5
:100070000C9494000C9494000C9494000C949400B0
:100080000C9494000C9494000C9494000C949400A0
:100090000C9494000C9494000C9494000C94940090
:1000A0000C9494000C9494000C9494000C94940080
:1000B0000C9494000C9494000C9494000C94940070
:1000C0000C9494000C9494000C9494000C94940060
:1000D0000C9494000C9494000C9494000C94940050
:1000E0000C94940011241FBECFEFD1E2DEBFCDBF30
:1000F00000E00CBF12E0A0E0B2E0E6E2F4E000E0D5
:100100000BBF02C007900D92A633B107D9F71BBEF3
:1001100012E0A6E3B2E001C01D92A937B107E1F7F2
:100120000E94C0010C9411020C940000CF93DF9345
:10013000FC0162E070E00E94D801EB0122E030E0B7
:1001400008C0CF01B9010E94D801009741F02F5F8C
:100150003F4FC217D307ACF781E090E002C080E0C8
:1001600090E0DF91CF9108958FEF80930A01109274
:100170000B0108958FEF80930B0180930A01809308
:100180003602089510920B011092360208958FEFF7
:1001900080930B0180933602089521E030E002C085
:1001A000220F331F8A95E2F720958091360228238B
:1001B0002093360220930B01089521E030E002C025
:1001C000220F331F8A95E2F780913602822B8093AB
:1001D000360280930B0108958095809336028093B8
:1001E0000B0108951092C50087E08093C400E0ECF5
:1001F000F0E0808182608083E1ECF0E080818860C3
:1002000080830895CF93C82F8A3019F48DE00E941F
:1002100002018FEF9FE7A4E081509040A040E1F7FA
:1002200000C00000C093C60081E090E0CF91089527
:10023000CF93DF93EC0102C00E94020189918823D1
:10024000D9F781E090E0DF91CF9108950F931F934C
:10025000CF93DF93182F092FE82FF92FEF01099083
:100260000020E9F72197CE1BDF0B2FE330E0A091B0
:100270003702B0913802A75CBD4FFD01019000200C
:10028000E9F73197EA1BFB0BC9018E1B9F0B8C17FB
:100290009D0768F3F8946091370270913802675CAB
:1002A0007D4F89E392E00E940A0289E392E0612F88
:1002B000702F0E94FF011092380210923702809135
:1002C000330290913402009799F010923402109208
:1002D00033028091370290913802FC01E75CFD4FB8
:1002E0002081019690933802809337022093C600B4
:1002F0007894DF91CF911F910F9108951F920F92E3
:100300000FB60F920BB60F9211242F938F939F93DA
:10031000EF93FF93E0913702F0913802E75CFD4FD5
:100320002081222359F4109238021092370281E082
:1003300090E0909334028093330216C02A3049F43F
:10034000E0913702F0913802E75CFD4F8DE0808349
:1003500009C080913702909138020196909338023B
:10036000809337022093C600FF91EF919F918F9168
:100370002F910F900BBE0F900FBE0F901F901895EE
:100380000E94F2007894CAE0D0E080E092E00E94FF
:1003900026018DE092E00E9426018BE192E00E940E
:1003A0002601219791F78AE292E00E942601FFCF71
:1003B00097FB092E07260AD077FD04D00CD006D073
:1003C00000201AF4709561957F4F0895F6F7909587
:1003D00081959F4F0895AA1BBB1B51E107C0AA1F1F
:1003E000BB1FA617B70710F0A61BB70B881F991FD6
:1003F0005A95A9F780959095BC01CD010895FB0110
:10040000DC010D900020E9F7119701900D9200207A
:10041000E1F70895FB01DC0101900D920020E1F766
:060420000895F894FFCFDF
:1004260049206C6F766520796F752E0A00596F75B5
:10043600206C6F7665206D652E0A004865206C6F0E
:10044600766573206865722E0A00456E6420212148
:06045600210A0001000074
:00000001FF
