:100000000C9472000C9494000C9494000C94940042
:100010000C9494000C9494000C9494000C94940010
:100020000C9494000C9494000C9494000C94940000
:100030000C9494000C9494000C9494000C949400F0
:100040000C9494000C9494000C9494000C949400E0
:100050000C9494000C9494000C9494000C949400D0
:100060000C9494000C9494000C9494000C949400C0
:100070000C9494000C9494000C9494000C949400B0
:100080000C9494000C9494000C9494000C949400A0
:100090000C9494000C9494000C9494000C94940090
:1000A0000C9494000C9494000C9494000C94940080
:1000B0000C9494000C9494000C9494000C94940070
:1000C0000C9494000C9494000C9494000C94940060
:1000D0000C9494000C9494000C9494000C94940050
:1000E0000C94940011241FBECFEFD1E2DEBFCDBF30
:1000F00000E00CBF12E0A0E0B2E0E6ECF1E000E0CE
:100100000BBF02C007900D92A630B107D9F71BBEF6
:1001100012E0A6E0B2E001C01D92A630B107E1F7FF
:100120000E94CA000C94E1000C9400001092C500DB
:1001300087E08093C400E0ECF0E0808182608083FF
:10014000E1ECF0E08081886080830895CF93C82F30
:100150008A3019F48DE00E94A6008FEF9FE7A4E09B
:1001600081509040A040E1F700C00000C093C6005D
:1001700081E090E0CF910895CF93DF93EC0102C02E
:100180000E94A60089918823D9F781E090E0DF9151
:10019000CF9108950E949600C5E0D0E00FC0812F56
:1001A0000E94A6001F5F1B35D1F78AE00E94A600BF
:1001B00080E092E00E94BC00219711F011E4EFCFA3
:0601C000FFCFF894FFCF11
:0601C600414243440A001F
:00000001FF
