:100000000C9472000C9494000C9494000C94940042
:100010000C9494000C9494000C9494000C94940010
:100020000C9494000C9494000C9494000C94940000
:100030000C9494000C9494000C9494000C949400F0
:100040000C9494000C9494000C9494000C949400E0
:100050000C9494000C9494000C9494000C949400D0
:100060000C9494000C9494000C9494000C944E0105
:100070000C9494000C9494000C9494000C949400B0
:100080000C9494000C9494000C9494000C949400A0
:100090000C9494000C9494000C9494000C94940090
:1000A0000C9494000C9494000C9494000C94940080
:1000B0000C9494000C9494000C9494000C94940070
:1000C0000C9494000C9494000C9494000C94940060
:1000D0000C9494000C9494000C9494000C94940050
:1000E0000C94940011241FBECFEFD1E2DEBFCDBF30
:1000F00000E00CBF12E0A0E0B2E0EEEDF3E000E0C3
:100100000BBF02C007900D92A433B107D9F71BBEF5
:1001100012E0A4E3B2E001C01D92A937B107E1F7F4
:100120000E948C010C94ED010C940000CF93DF939E
:10013000FC0162E070E00E94BF01EB0122E030E0D0
:1001400008C0CF01B9010E94BF01009741F02F5FA5
:100150003F4FC217D307ACF781E090E002C080E0C8
:1001600090E0DF91CF9108958FEF80930A01109274
:100170000B0108958FEF80930B0180930A01809308
:100180003402089510920B011092340208958FEFFB
:1001900080930B0180933402089521E030E002C087
:1001A000220F331F8A95E2F720958091340228238D
:1001B0002093340220930B01089521E030E002C027
:1001C000220F331F8A95E2F780913402822B8093AD
:1001D000340280930B0108958095809334028093BC
:1001E0000B0108951092C50087E08093C400E0ECF5
:1001F000F0E0808182608083E1ECF0E080818860C3
:1002000080838081806480830895BC01809137025F
:10021000909138020097D1F389E392E00E94E601C1
:100220001092360210923502109238021092370264
:100230008091350290913602FC01E75CFD4F2081F0
:10024000019690933602809335022093C60080E099
:1002500090E00895CF93C82F8A3019F48DE00E9462
:100260002A018FEF9FE7A4E081509040A040E1F782
:1002700000C00000C093C60081E090E0CF910895D7
:10028000CF93DF93EC0102C00E942A018991882359
:10029000D9F781E090E0DF91CF9108951F920F92FE
:1002A0000FB60F920BB60F9211242F938F939F933B
:1002B000EF93FF93E0913502F0913602E75CFD4F3A
:1002C0002081222339F481E090E0909338028093DA
:1002D000370216C02A3049F4E0913502F091360217
:1002E000E75CFD4F8DE0808309C0809135029091DD
:1002F0003602019690933602809335022093C60011
:10030000FF91EF919F918F912F910F900BBE0F90C6
:100310000FBE0F901F901895CF93DF9300D00F92D0
:10032000CDB7DEB778940E94F2001C821B821DC0FC
:1003300080E092E00E94050189819A810097E1F3B3
:100340008DE092E00E94050189819A810097E1F396
:100350008BE192E00E94050189819A810097E1F387
:100360008B819C8101969C838B838B819C818A30BD
:100370009105F4F28AE292E00E940501FFCF97FB1B
:10038000092E07260AD077FD04D00CD006D0002015
:100390001AF4709561957F4F0895F6F790958195C1
:1003A0009F4F0895AA1BBB1B51E107C0AA1FBB1F8B
:1003B000A617B70710F0A61BB70B881F991F5A95F1
:1003C000A9F780959095BC01CD010895FB01DC0152
:0E03D00001900D920020E1F70895F894FFCF00
:1003DE0049206C6F766520796F752E0A00596F75FE
:1003EE00206C6F7665206D652E0A004865206C6F57
:1003FE00766573206865722E0A00456E6420212191
:04040E00210A0000BF
:00000001FF
